:04000000803185289E
:100008007E1480312E000F1C0A280B28102820008F
:10001800EF01EF0A2E000F108F1E1328142849280D
:1000280022001908F500F6017508F7007608F800AF
:10003800200041034204031D222823283128780880
:10004800F1007708F0008131D321803120003D088C
:10005800013EBD0000303E3DBE003E08803AF5003E
:100068004008803A7502031D3B283F083D02031CE7
:100078003E283F2842282000C301C30A013020003F
:10008800C8070030C93D2E008F120F1E4C284D287E
:10009800832820003908803AF5003708803A75022D
:1000A800031D582836083802031C5B285C28702872
:1000B8002E00191220004008803AF50080307502A1
:1000C800031D682801303F0203186B286C2881281B
:1000D8002000C301C30A8128200038083C07F50026
:1000E800750886008701010822009A002000380858
:1000F800013EB8000030393DB9002E000F127E10C5
:10010800090080318728453084008F308500793098
:1001180086000030870004308731F9278031A3300A
:1001280084008F30850064308600003087000C30F2
:100138008731F9278031C130840086308500A030AE
:100148008600003087003F308731F9278031203022
:100158008400003085002F308F315A278031DF30FE
:100168008400003085000C308F315A2780312030D0
:1001780084000130850024308F315A2780317E1069
:1001880020008431872C20002108803AD100863055
:100198005102031DD128A4302002031CD428D528DD
:1001A800FA2820002308803AD10085305102031D27
:1001B800DF2846302202031CE228E328FA28200020
:1001C8002308803AD10086305102031DED28733090
:1001D80022020318F028F128FA284B302000CF001B
:1001E8000030D000873100278031D2292000210833
:1001F800803AD10085305102031D042915302002B0
:100208000318072908292D2920002308803AD1003E
:1002180085305102031D122946302202031C15297C
:1002280016292D2920002308803AD1008630510252
:10023800031D2029733022020318232924292D297C
:100248004B302000CF000030D00087311F2780318D
:10025800D22920002308803AD10086305102031D9C
:100268003729A4302202031C3A293B29602920009F
:100278002108803AD10085305102031D45294630B6
:100288002002031C48294929602920002108803AB6
:10029800D10086305102031D532973302002031800
:1002A8005629572960294B302000CF000030D00054
:1002B80087313E278031D22920002308803AD10097
:1002C80085305102031D6A291530220203186D2951
:1002D8006E29932920002108803AD10085305102E7
:1002E800031D782946302002031C7B297C29932989
:1002F80020002108803AD10086305102031D86294A
:1003080073302002031889298A2993294B30200049
:10031800CF000030D00087315D278031D2292000FE
:100328002308803AD10085305102031D9D294630AB
:100338002202031CA029A129CF2920002308803AE2
:10034800D10086305102031DAB29733022020318F5
:10035800AE29AF29CF2920002108803AD100853065
:100368005102031DB92946302002031CBC29BD29AE
:10037800CF2920002108803AD10086305102031D80
:10038800C729733020020318CA29CB29CF298731FE
:10039800CB278031D22987317C278031080007306C
:1003A800363E860087014131811FDB29DC29982AE6
:1003B800DC2A7108B5007008B400DC2A1430203E2D
:1003C800860087017108F3007008F2007208F300D4
:1003D800F201403F7207A000413F733DA100DC2AB3
:1003E8001430203E860087017108F3007008F2007F
:1003F8007208F300F201403F7207A200413F733DCB
:10040800A300DC2A1430203E860087017108F3001F
:100418007008F2007208F300F201403F7207A4006E
:10042800413F733DA500DC2A1430203E8600870139
:100438007108F3007008F2007208F300F201403FFF
:100448007207A600413F733DA700DC2A1430203E06
:10045800860087017108F3007008F2007208F30043
:10046800F201403F7207A800413F733DA900DC2A12
:100478001430203E860087017108F3007008F200EE
:100488007208F300F201403F7207AA00413F733D32
:10049800AB00DC2A1430203E860087017108F30087
:1004A8007008F2007208F300F201403F7207AC00D6
:1004B800413F733DAD00DC2A1430203E86008701A1
:1004C8007108F3007008F2007208F300F201403F6F
:1004D8007207AE00413F733DAF00DC2A1430203E66
:1004E800860087017108F3007008F2007208F300B3
:1004F800F201403F7207B000413F733DB100DC2A72
:100508001430203E860087017108F3007008F2005D
:100518007208F300F201403F7207B200413F733D99
:10052800B300CA01CB01DC2A20003E08003A0319B7
:100538009E2ADC2A3D08063A0319DD29013A0319E7
:10054800E2290F3A0319DD29013A0319F429033A7C
:100558000319DD29013A0319062A073A0319DD2987
:10056800013A0319182A033A0319DD29013A031934
:100578002A2A1F3A0319DD29013A03193C2A033AAA
:100588000319DD29013A03194E2A073A0319DD290F
:10059800013A0319602A033A0319DD29013A0319BC
:1005A800722A0F3A0319DD29013A0319842ADC2A31
:1005B80008002000E3006308860087010103031D8B
:1005C800E62AE72AE02B63088600870181015B0899
:1005D80086008701403FD600413FD7005C0885313F
:1005E800D12582312000DE00DF015B08860087010B
:1005F8005E08C03F5F08C13F5C080B3E860087016C
:1006080001080319082B092BE02B5C08063E86001D
:100618008701403FDE00413FDF005C08043E860062
:100628008701403FE000413FE1006108803AE20075
:100638005F08803A6202031D232B5E0860020318DC
:10064800262B272B502B20005C08063E86008701AE
:10065800403FDE00413FDF005C08023E8600870124
:10066800403FE000413FE1006108803AE2005F0856
:10067800803A6202031D422B5E0860020318452B74
:10068800462B502B20001614961016115D08860074
:1006980087018101810AE02B20005C08043E860066
:1006A8008701403FDE00413FDF005C08063E8600D0
:1006B8008701403FE000413FE1006108803AE200E5
:1006C8005F08803A6202031D6B2B5E086002031804
:1006D8006E2B6F2B982B20005C08043E8600870148
:1006E800403FDE00413FDF005C08023E8600870194
:1006F800403FE000413FE1006108803AE2005F08C6
:10070800803A6202031D8A2B5E08600203188D2B53
:100718008E2B982B20001610961416115D08860053
:10072800870102308100E02B20005C08023E860031
:100738008701403FDE00413FDF005C08043E860041
:100748008701403FE000413FE1006108803AE20054
:100758005F08803A6202031DB32B5E08600203182B
:10076800B62BB72BE02B20005C08023E86008701E1
:10077800403FDE00413FDF005C08063E86008701FF
:10078800403FE000413FE1006108803AE2005F0835
:10079800803A6202031DD22B5E0860020318D52B33
:1007A800D62BE02B20001610961016155D08860033
:1007B800870103308100E02B08002000D3002300CC
:1007C8000C082000D200622C5208D0005308873150
:1007D800B2278331832C5208CF0053088F3160270A
:1007E8008331200053088F31AF278331832C53087E
:1007F800083E860087015308840085010108803F70
:100808005208813F53088F31AF278331832C520818
:10081800CF0053088F3160278331200053088F3170
:10082800AF27833120005308083E8600870153080C
:10083800063E840085010108803F5208813F530825
:100848008F31AF278331832C5208CF0053088F3163
:1008580060278331200053088F31AF278331832CE1
:100868005308083E860087015308043E840085012A
:100878000108803F5208813F53088F31AF278331E9
:10088800832C5208CF0053088F3160278331200012
:1008980053088F31AF278331832C5308083E8600D5
:1008A80087015308023E840085010108803F5208F1
:1008B800813F53088F31ED278331832C53080A3E3B
:1008C800860087010108003A0319E82B013A031949
:1008D800EF2B033A0319FB2B013A03190B2C073AA8
:1008E8000319162C013A0319282C033A0319342C3E
:1008F800013A0319452C0F3A0319512C832C8F31D7
:10090800382783310800200091163E00B8122000D5
:1009180011109110111191111610961016119611AF
:100928008F31992784318F318F27843122009F1589
:100938001E1510303E00A500200093123D004B0804
:10094800E0391638CB00200013173E004E13443010
:1009580022009B0087317C27843122009D179E1638
:100968001E121D168531782584310B172E00991615
:10097800191619148B17033020002902E9300319BE
:1009880028020318C82CC92CED2C2D08D0002C08DF
:10099800CF0087319727843120002F08D0002E08F8
:1009A800CF008F31BD278431033020002B02E9307E
:1009B80003192A020318E12CE22CFD2C4C30DB0031
:1009C800DF30DC004E30DD006F308231DD228431D3
:1009D800FD2CDC30CF000530D000873197278431DB
:1009E800D0302000CF000730D0008F31BD278431B0
:1009F800FD2C200043080319022D032DBF2C3A03B8
:100A08003B04031D082D092D0D2D8031C72084318D
:100A1800BF2C87317C278431BF2C803185288F31CA
:100A28007B2785318F31DD278531803023008C008D
:100A38002E000F1C202D212D1C2D2300111B252DD0
:100A4800262D212D2E000F10033023008C002E00A0
:100A58000F1C2F2D302D2B2D2300111B342D352D40
:100A6800302D2E000F108F31722785318F31DD2701
:100A78008531923023008C002E000F1C442D452D0B
:100A8800402D2300111B492D4A2D452D2E000F10F6
:100A98008F31722785318F31CD278531230091150C
:100AA8002E000F1C582D592D542D0F1023000C0803
:100AB8002000D100D2015108D3005208D4002300ED
:100AC80091128F3169278531AB30200053065404C9
:100AD800031D6F2D702D752D0130CF000030D00013
:100AE800772DCF01D00108008F31852785318531D9
:100AF8001325853120005008D8004F08D700570328
:100B08005804031D882D892DD02D161496141615FA
:100B1800961515302000D6004B30D500BE30890B15
:100B2800932DD50B932DD60B932D00002000161076
:100B380096101611961115302000D6004B30D500AE
:100B4800BE30890BA52DD50BA52DD60BA52D0000E4
:100B58002000161496141615961515302000D60088
:100B68004B30D500BE30890BB72DD50BB72DD60B22
:100B7800B72D00002000161096101611961115308A
:100B88002000D6004B30D500BE30890BC92DD50BBF
:100B9800C92DD60BC92D000008002000DA00FC2D55
:100BA8008F3149278531182E8F3154278531182EDA
:100BB8005A080A3E860087010108D800D90158085A
:100BC800CF005908D00086317D268531182E8F3107
:100BD8003E278531182E8F314E278531182E8F31BB
:100BE8003B278531182E5A088331E1238531182E89
:100BF8005708003A0319012E182E5608003A03190F
:100C0800D42D013A0319D82D033A0319DC2D013AE2
:100C18000319EB2D073A0319EF2D013A0319F32DA8
:100C2800033A0319F72D182E07302000CF000030A3
:100C3800D0005608013ED1000030573DD200863121
:100C48002926853120004F0808002000D501D21F31
:100C58002E2E2F2E362ED109D209D10A0319D20AE7
:100C6800D501D50AD01F392E3A2E3F2ECF09D009EB
:100C7800CF0A0319D00A4F0850040319442E452EF1
:100C88006E2ED401D40A512E0130CF35D00D890BE8
:100C9800492E0130D3005308D407D01F542E552EA7
:100CA800482E50085202031D5B2E4F085102031CA8
:100CB8005E2E5F2E632E4F08D1025008D23B0130C2
:100CC800D036CF0C890B642E0130D402031D6D2E53
:100CD8006E2E552E55080319722E732E782ED109B3
:100CE800D209D10A0319D20A5208D0005108CF00FC
:100CF80008002000D1019B2E9330D100BD2E9430E6
:100D0800D100BD2E9530D100BD2E9630D100BD2E1C
:100D18009730D100BD2E9A30D100BD2E9B30D10026
:100D2800BD2E9830D100BD2E9930D100BD2E50086F
:100D3800003A0319A02EBD2E4F08003A0319802E41
:100D4800013A0319832E033A0319862E013A03192F
:100D5800892E073A03198C2E013A03198F2E033A6C
:100D68000319922E013A0319952E0F3A0319982E5A
:100D7800BD2E510823008C000800FE3419340134BC
:100D88000834013400340134FE3419340134063493
:100D9800043400340034003400340034FE34193490
:100DA8000134063404340034023432340234323428
:100DB800FE34193401340634043400340134323436
:100DC80001343234FE341934013406340434003426
:100DD8000234323401343234FE34193401340634E6
:100DE800043400340134323402343234FE341934D9
:100DF800013405340034003403302000BA000030D8
:100E0800BB00B801B9010A30B6000030B700C10113
:100E1800C201BF01C001BD01BE01C3014F082100CD
:100E2800CC0020004F082100CE00C5302000BC00B7
:100E38002E001916080004302000BA000030BB004C
:100E4800B801B9010A30B6000030B700C101C201CB
:100E5800BF01C001BD01BE01C3014F082100D6007A
:100E680020004F082100D800CF302000BC002E0001
:100E78001916080005302000BA000030BB00B80180
:100E8800B9010A30B6000030B700C101C201BF0184
:100E9800C001BD01BE01C3014F082100C2002000EE
:100EA8004F082100C400BB302000BC002E001916DA
:100EB800080006302000BA000030BB00B801B901B4
:100EC8000A30B6000030B700C101C201BF01C0013D
:100ED800BD01BE01C3014F082100B80020004F0822
:100EE8002100BA00B1302000BC002E0019160800FD
:100EF80001302000C1000030C2001A30BF000030AD
:100F0800C000BD01BE010130BA000030BB00D930BD
:100F1800BC00B801B9010630B6000030B700C30103
:100F28002E0019160800200017109710E8304F06F9
:100F3800033003195006031DA22FA32FA62F171441
:100F48009710B12FD0304F06073003195006031DF4
:100F5800AE2FAF2FB12F1710971408002000D10023
:100F680050080139D0005108093E86008701500811
:100F780081005108093E860087010103031DC52F22
:100F8800C62FCA2F51088F31AF2787310800073085
:100F98002000BA000030BB00B801B9010A30B60021
:100FA8000030B700C101C201BF01C001BD01BE01CF
:100FB800C301A730BC002E00191608003D004508E3
:100FC800E0391338C5004608E0391438C600143033
:100FD8003E00A3001530A4002000931513163E0010
:100FE800CE114E12CF154F160800FE0012001E003B
:060FF800FE0BFA2F00348D
:101E70002300111508002300911508002300911478
:101E800008004F3023008D0008004B342E348C3472
:101E90000A342E000F102300111408002E000F101A
:101EA000733023008C0008002E000F1072302300C6
:101EB0008C000800640080010131890B5B2F003425
:101EC0002000D0005008083E860087014F0881009E
:101ED0000800230011152E000F1C6F2F702F6B2F81
:101EE0000F100800230091142E000F1C782F792F5B
:101EF000742F0F100800230011142E000F100F1C58
:101F0000822F832F7F2F0F1008002830230090008E
:101F10008731E2278F318F3141278F310800200030
:101F2000121192113E004311C31120001711971195
:101F300008002000121092103E004310C310200031
:101F4000171097100800DC340534E8340334D0341B
:101F500007340134003403340234013401342000E6
:101F6000CF004F080A3E860087014F080A3E8400D2
:101F700085010008013E8100080003302000500266
:101F8000E93003194F020318C62FC72FCA2F1715A0
:101F90009711CC2F171197110800733023008C0074
:101FA0002E000F1CD42FD52FD02F2300111BD92F7B
:101FB000DA2FD52F2E000F100800723023008C006E
:101FC0002E000F1CE42FE52FE02F2300111BE92F1B
:101FD000EA2FE52F2E000F1008002000CF004F0839
:101FE0000A3E8600870181014F08093E860087016D
:101FF00081014F080B3E860087018101810A08009C
:042000000134003473
:020000040001F9
:0A000E008F1FFF3F9F3FFF3FFF3FA2
:00000001FF
