:04000000803189289A
:100008007E1480312E000F1C0A280B28102820008F
:10001800EE01EE0A2E000F108F1E1328142849280F
:1000280022001908F500F6017508F7007608F800AF
:10003800200061036204031D222823283128780840
:10004800F1007708F00084317624803120005D08C3
:10005800013EDD0000305E3DDE005E08803AF500BE
:100068006008803A7502031D3B285F085D02031C87
:100078003E283F2842282000E301E30A01302100FE
:10008800EE070030EF3D2E008F120F1E4C284D2832
:10009800872820005808803AF5005608803A7502EB
:1000A800031D582855085702031C5B285C28702834
:1000B8002E00191220006008803AF5008030750281
:1000C800031D682801305F0203186B286C288528F7
:1000D8002000E301E30A85280230553E86008701A7
:1000E800403F20005B078400413F5C3D85000008DD
:1000F80022009A0020005708013ED7000030583DE2
:10010800D8002E000F127E10090080318B28243071
:1001180084008B30850079308600003087000430F9
:100128008B313F238031453084008B308500693026
:1001380086000030870006308B313F23803118302D
:1001480084008D308500A030860000308700343070
:100158008B313F238031C63084008B30850051308D
:1001680086000130870011308B313F2380315530B4
:1001780084000030850014308B3139238031D4302D
:100188008400003085001C308B31392380312030C9
:1001980084000130850031308B31392380317E1065
:1001A80020008F316C2F200031088039BB00313599
:1001B800C100B01FE028E128E228411441080319D2
:1001C800E628E728F628410A031DEB28EC28F4283E
:1001D8000030B1000030B0000030AF000030AE0099
:1001E800B017FE280030B1000030B0000030AF007A
:1001F8000030AE0035088039B6003608BB06353504
:10020800C000B41F082909290A2940144008031905
:100218000E290F291E29400A031D132914291C29F8
:100228000030B5000030B4000030B3000030B20038
:10023800B41726290030B5000030B4000030B300F0
:100248000030B200400803192A292B293029410817
:10025800031D2F29302939290030B1000030B000A2
:100268000030AF000030AE00112B2E08A00034087B
:100278008C31F424803120002108C7002008C600F2
:100288004608B600B701B801B9013908BF003808F7
:10029800BE003708BD003608BC004708B600B701E5
:1002A800B801B9013908C5003808C4003708C300C7
:1002B8003608C2002F08A00033088C31F42480319E
:1002C80020002108C7002008C6004608B600B7016C
:1002D800B801B9013608BC073708BD3D3808BE3D2E
:1002E8003908BF3D4708B600B701B801B90136085B
:1002F800C2073708C33D3808C43D3908C53D300832
:10030800A00032088C31F424803120002108C70075
:100318002008C6004608B600B701B801B90136087A
:10032800BC073708BD3D3808BE3D3908BF3D470802
:10033800B600B701B801B9013608C2073708C33D8E
:100348003808C43D3908C53D0830BC35BD0DBE0D63
:10035800BF0D890BA9292F08A00032088C31F4247D
:10036800803120002108C7002008C6004608BC07C5
:100378004708BD3D0030BE3DBF3D2E08A0003308F4
:100388008C31F424803120002108C7002008C600E1
:100398004608BC074708BD3D0030BE3DBF3D08309C
:1003A800BC35BD0DBE0DBF0D890BD4292E08A0008C
:1003B80032088C31F424803120002108C70020083D
:1003C800C6004608BC074708BD3D0030BE3DBF3DDE
:1003D8002F08A00034088C31F42480312000210833
:1003E800C7002008C6004608C2074708C33D0030BA
:1003F800C43DC53D3008A00033088C31F424803159
:1004080020002108C7002008C6004608C207470880
:10041800C33D0030C43DC53D3008A00034088C31D0
:10042800F424803120002108C7002008C6004608AF
:10043800B6004708B700B801B9010830B635B70D9E
:10044800B80DB90D890B222A3608C2073708C33DF3
:100458003808C43D3908C53D3C08B6003D08B7001A
:100468003E08B8003F08B9001830B936B80CB70CC8
:10047800B60C890B392A3608C2073708C33D380835
:10048800C43D3908C53D0830BC35BD0DBE0DBF0D96
:10049800890B482A41084007B600B701B70D36084E
:1004A800823EC600FF30373DC700712A0130C23591
:1004B800C30DC40DC50D890B5B2ABF1F642A652AAD
:1004C800662A42140130BC35BD0DBE0DBF0D890B27
:1004D800672AFF30C607FF30C73DC41F742A752A34
:1004E8005A2AC001BF1F792A7A2A962AFF303C056A
:1004F800B600FF303D05B700FF303E05B8007F303D
:100508003F05B900390838043704360403198D2A21
:100518008E2A912AC001C00A962A421C942A952A3A
:10052800962A8E2A400803199A2A9B2AC32A013040
:10053800C2070030C33D0030C43D0030C53D451CF6
:10054800A62AA72AC32A4208B6004308B7004408C7
:10055800B8004508B9000130BA00B937B80CB70C73
:10056800B60CBA0BB12A3908C5003808C4003708D8
:10057800C3003608C2000130C6070030C73D47082F
:10058800803AB60080303602031DCC2AFF3046027E
:10059800031CCF2AD02ADA2A7F302000C5008030F9
:1005A800C4000030C3000030C200052B20004708FB
:1005B800803AB60080303602031DE42A0130460234
:1005C8000318E72AE82AF32A00302000C500003083
:1005D800C4000030C3000030C200BB01052B20005E
:1005E8004608C100FF30C205FF30C3057F30C4058F
:1005F8000030C505411C012B022B032BC4174136C3
:10060800C5003B08B6003608C5044508B1004408D3
:10061800B0004308AF004208AE0008002100660899
:10062800183E2000A000FC302100673D2000A100FA
:10063800A201A11BA2032208A300013087314C2785
:10064800833120002308B5002208B4002108B30034
:100658002008B2003D30B100CC30B000CC30AF0043
:10066800CD30AE008031D720833120003108CB0057
:100678003008CA002F08C9002E08C8008E31FB2692
:10068800833120004908D4004808D30021005508C8
:10069800803A2000D20086305202031D562BA43027
:1006A80021005402031C592B5A2B832B2100570875
:1006B800803A2000D20085305202031D662B463056
:1006C80021005602031C692B6A2B832B2100570833
:1006D800803A2000D20086305202031D762B7330F8
:1006E800210056020318792B7A2B832B20005408FB
:1006F800A1005308A0008C31D3248331752C21002C
:100708005508803A2000D20085305202031D8F2BF5
:100718001530210054020318922B932BBC2B210077
:100728005708803A2000D20085305202031D9F2BC3
:10073800463021005602031CA22BA32BBC2B210000
:100748005708803A2000D20086305202031DAF2B92
:100758007330210056020318B22BB32BBC2B200098
:100768005408A1005308A0008C31B2248331752CA1
:1007780021005708803A2000D20086305202031D1B
:10078800C82BA43021005602031CCB2BCC2BF52BF5
:1007980021005508803A2000D20085305202031DFE
:1007A800D82B463021005402031CDB2BDC2BF52B05
:1007B80021005508803A2000D20086305202031DDD
:1007C800E82B7330210054020318EB2BEC2BF52B8C
:1007D80020005408A1005308A0008C3191248331D3
:1007E800752C21005708803A2000D200853052022B
:1007F800031D012C1530210056020318042C052C6A
:100808002E2C21005508803A2000D2008530520253
:10081800031D112C463021005402031C142C152CE6
:100828002E2C21005508803A2000D2008630520232
:10083800031D212C7330210054020318242C252C6D
:100848002E2C20005408A1005308A0008C317024DD
:100858008331752C21005708803A2000D20085305A
:100868005202031D3A2C463021005602031C3D2C2F
:100878003E2C722C21005708803A2000D200863086
:100888005202031D4A2C73302100560203184D2CC6
:100898004E2C722C21005508803A2000D200853059
:1008A8005202031D5A2C463021005402031C5D2CB1
:1008B8005E2C722C21005508803A2000D200863028
:1008C8005202031D6A2C73302100540203186D2C48
:1008D8006E2C722C8C3104248331752C8C3153246A
:1008E800833108000830553E860087014131811F59
:1008F8007E2C7F2C472D8B2D71082100E900700874
:10090800E8008B2D1430D43E860087017108F3006F
:100918007008F2007208F300F201403F72072100EC
:10092800D400413F733DD5008B2D1430D43E860052
:1009380087017108F3007008F2007208F300F201F1
:10094800403F72072100D600413F733DD7008B2DF1
:100958001430D43E860087017108F3007008F20055
:100968007208F300F201403F72072100D800413FAE
:10097800733DD9008B2D1430D43E86008701710851
:10098800F3007008F2007208F300F201403F7207AA
:100998002100DA00413F733DDB008B2D1430D43E3B
:1009A800860087017108F3007008F2007208F300EE
:1009B800F201403F72072100DC00413F733DDD003A
:1009C8008B2D1430D43E860087017108F30070081F
:1009D800F2007208F300F201403F72072100DE00C6
:1009E800413F733DDF008B2D1430D43E86008701D4
:1009F8007108F3007008F2007208F300F201403F3A
:100A080072072100E000413F733DE1008B2D143057
:100A1800D43E860087017108F3007008F20072085E
:100A2800F300F201403F72072100E200413F733DAD
:100A3800E3008B2D1430D43E860087017108F30043
:100A48007008F2007208F300F201403F72072100BB
:100A5800E400413F733DE5008B2D1430D43E860001
:100A680087017108F3007008F2007208F300F201C0
:100A7800403F72072100E600413F733DE700200038
:100A8800E401E5018B2D20005E08003A03194D2D85
:100A98008B2D5D08063A0319802C013A0319862C20
:100AA8000F3A0319802C013A0319992C033A0319B8
:100AB800802C013A0319AC2C073A0319802C013A0F
:100AC8000319BF2C033A0319802C013A0319D22CBD
:100AD8001F3A0319802C013A0319E52C033A03192C
:100AE800802C013A0319F82C073A0319802C013A93
:100AF80003190B2D033A0319802C013A03191E2DF3
:100B08000F3A0319802C013A0319312D8B2D080057
:100B18002000B4003408860087010103031D952DC9
:100B2800962D9C2E34088600870181012C088600AA
:100B38008701403FA700413FA8002D088D31E425DB
:100B480085312000AF00B0012C08860087012F08EE
:100B5800C03F3008C13F2D080B3E8600013087009A
:100B680001080319B82DB92D9C2E2D08063E8600C4
:100B780001308700403FAF00413FB0002D08043EE0
:100B8800860001308700403FB100413FB200320883
:100B9800803AB3003008803A3302031DD52D2F0860
:100BA80031020318D82DD92D042E20002D08063E19
:100BB800860001308700403FAF00413FB0002D085C
:100BC800023E860001308700403FB100413FB2003D
:100BD8003208803AB3003008803A3302031DF62DFC
:100BE8002F0831020318F92DFA2D042E20001614AF
:100BF800961016112E08860087018101810A9C2E05
:100C080020002D08043E860001308700403FAF00D9
:100C1800413FB0002D08063E860001308700403F66
:100C2800B100413FB2003208803AB3003008803A40
:100C38003302031D212E2F0831020318242E252EDE
:100C4800502E20002D08043E860001308700403FCA
:100C5800AF00413FB0002D08023E860001308700FA
:100C6800403FB100413FB2003208803AB30030083B
:100C7800803A3302031D422E2F0831020318452EF5
:100C8800462E502E20001610961416112E08860097
:100C98008701023081009C2E20002D08023E86002C
:100CA80001308700403FAF00413FB0002D08043EAF
:100CB800860001308700403FB100413FB200320852
:100CC800803AB3003008803A3302031D6D2E2F0896
:100CD80031020318702E712E9C2E20002D08023E22
:100CE800860001308700403FAF00413FB0002D082B
:100CF800063E860001308700403FB100413FB20008
:100D08003208803AB3003008803A3302031D8E2E31
:100D18002F0831020318912E922E9C2E20001610B7
:100D2800961016152E0886008701033081009C2E28
:100D380008002000A40023000C082000A300262F90
:100D48002308A10024088C311D248631482F23084C
:100D5800A00024088B3154238631200024088B31CD
:100D680096238631482F2408083E860001308700E4
:100D780024088400013085000108803F2308813F52
:100D880024088B3196238631482F2308A000240895
:100D98008B3154238631200024088B3196238631E9
:100DA80020002408083E8600013087002408063EFB
:100DB8008400013085000108803F2308813F240812
:100DC8008B3196238631482F2308A00024088B31C5
:100DD80054238631200024088B3196238631482FEE
:100DE8002408083E8600013087002408043E840059
:100DF800013085000108803F2308813F24088B319A
:100E080096238631482F2308A00024088B315423C9
:100E18008631200024088B3196238631482F2408F8
:100E2800083E8600013087002408023E8400013015
:100E380085000108803F2308813F24088B31D72390
:100E48008631482F24080A3E8600013087000108B1
:100E5800003A0319A42E013A0319AB2E033A0319D9
:100E6800B72E013A0319C92E073A0319D42E013AAD
:100E78000319E82E033A0319F42E013A0319072F30
:100E88000F3A0319132F482F8B3117238631080087
:100E98002000A80028080319522F532F672FA31FDB
:100EA800562F572F672F2009AA002109AB002209C6
:100EB800AC002309AD00AA0A0319AB0A0319AC0A4E
:100EC8000319AD0A6F2F2308AD002208AC002108D2
:100ED800AB002008AA002308220421042004031DD3
:100EE800762F772F802F0030A3000030A20000302B
:100EF800A1000030A000F62F9630A9008E2F0130F7
:100F0800A4002408A9070130AD36AC0CAB0CAA0C20
:100F1800890B882FFE302D05031D932F942F832FC7
:100F2800A82F0130A4002408A9070130AA0700301F
:100F3800AB3D0030AC3D0030AD3D0130AD36AC0CC2
:100F4800AB0CAA0C890BA22FFF302D05031DAD2F6A
:100F5800AE2F952FB82F0130A9020130AA35AB0D5D
:100F6800AC0DAD0D890BB22FAC1BBB2FBC2FC22F04
:100F7800023029020318C12FC22FAF2F2918C52FFD
:100F8800C62FCE2FFF30AA05FF30AB057F30AC054A
:100F9800FF30AD050310A90C2908A400A501A6017E
:100FA800A7011830A435A50DA60DA70D890BD62FBE
:100FB8002408AA042508AB042608AC042708AD04B5
:100FC80028080319E82FE92FEE2FA31FEC2FED2F88
:100FD800EE2FAD172D08A3002C08A2002B08A100A6
:100FE8002A08A0000800230091142E000F1CFD2FD2
:080FF800FE2FF92F0F10080075
:10162E0023001115080023009115080023009114C2
:10163E0008004F3023008D0008004B342E348C34BC
:10164E000A342E000F102300111408002E000F1064
:10165E00733023008C0008002E000F107230230010
:10166E008C000800640080010131890B3A2B003494
:10167E00FE0012001E00FE0B402B0034013400341D
:10168E000334023401340134230011152E000F1CD3
:10169E00512B522B4D2B0F1008002000A1002108BA
:1016AE00083E8600013087002008810008002300D4
:1016BE0011142E000F100F1C652B662B622B0F10B2
:1016CE0008002830230090008B31ED238B318B31B5
:1016DE0020238B3108002000121192113E0043117D
:1016EE00C31120001711971108002000121092103C
:1016FE003E004310C310200017109710080003304F
:10170E0020002102E9300319200203188F2B902BA1
:10171E00932B17159711952B171197110800200071
:10172E00A00020080A3E86000130870020080A3EED
:10173E008400013085000008013E810008007330EE
:10174E0023008C002E000F1CAD2BAE2BA92B2300DB
:10175E00111BB22BB32BAE2B2E000F1008007230C4
:10176E0023008C002E000F1CBD2BBE2BB92B23008B
:10177E00111BC22BC32BBE2B2E000F100800FE34E4
:10178E00193401340834013400340134FE34193470
:10179E000134063404340034003400340034003490
:1017AE002000A00020080A3E86000130870081013B
:1017BE002008093E860001308700810120080B3E7B
:1017CE008600013087008101810A08003D0045082E
:1017DE00E0391338C5004608E0391438C600143015
:1017EE003E00A3001530A4002000931513163E00F2
:1017FE00CE114E12CF154F16080007302000D9001B
:10180E000030DA00D701D8010A30D5000030D600FA
:10181E00E101E201DF01E001DD01DE01E30158300B
:10182E00DB000130DC002E00191608002000A2009B
:10183E0021080139A1002208093E860001308700E7
:10184E00210881002208093E86000130870001032D
:10185E00031D322C332C372C22088B3196238C31DE
:10186E000800200017109710E830200603300319E7
:10187E002106031D432C442C472C17149710522C71
:10188E00D0302006073003192106031D4F2C502C93
:10189E00522C17109714080001302000E100003080
:1018AE00E2001A30DF000030E000DD01DE01013021
:1018BE00D9000030DA00CE30DB000030DC00D7017A
:1018CE00D8010630D5000030D600E3012E001916DF
:1018DE00080006302000D9000030DA00D701D80108
:1018EE000A30D5000030D600E101E201DF01E0014F
:1018FE00DD01DE01E30120082100AD0020002008FB
:10190E002100AF00A6302000DB000030DC002E00EE
:10191E001916080005302000D9000030DA00D70172
:10192E00D8010A30D5000030D600E101E201DF0116
:10193E00E001DD01DE01E30120082100B7002000F7
:10194E0020082100B900B0302000DB000030DC00A0
:10195E002E001916080004302000D9000030DA00DD
:10196E00D701D8010A30D5000030D600E101E201DE
:10197E00DF01E001DD01DE01E30120082100CB00E3
:10198E00200020082100CD00C4302000DB000030F4
:10199E00DC002E001916080003302000D90000309C
:1019AE00DA00D701D8010A30D5000030D600E101A7
:1019BE00E201DF01E001DD01DE01E301200821008B
:1019CE00C100200020082100C300BA302000DB0037
:1019DE000030DC002E00191608002000A800A4011B
:1019EE00A5012008A200A3012208A6002308A70033
:1019FE00281C022D032D072D2608A4072708A53D18
:101A0E000130A635A70D890B082D0310A80C280848
:101A1E00031D122D132DFF2C2508A1002408A00054
:101A2E000800DC340534E8340334D0340734FE3493
:101A3E00193401340634043400340234323402349E
:101A4E003234FE3419340134063404340034013493
:101A5E00323401343234FE34193401340634043451
:101A6E0000340234323401343234FE341934013449
:101A7E000634043400340134323402343234FE3449
:101A8E00193401340534003400342000A2016A2DCB
:101A9E009330A2008C2D9430A2008C2D9530A20094
:101AAE008C2D9630A2008C2D9730A2008C2D9A3062
:101ABE00A2008C2D9B30A2008C2D9830A2008C2D74
:101ACE009930A2008C2D2108003A03196F2D8C2D10
:101ADE002008003A03194F2D013A0319522D033AEB
:101AEE000319552D013A0319582D073A03195B2D89
:101AFE00013A03195E2D033A0319612D013A0319B8
:101B0E00642D0F3A0319672D8C2D220823008C00AB
:101B1E0008002000A601A31F952D962D9D2DA2092C
:101B2E00A309A20A0319A30AA601A60AA11FA02DA2
:101B3E00A12DA62DA009A109A00A0319A10A20080A
:101B4E0021040319AB2DAC2DD52DA501A50AB82D59
:101B5E000130A035A10D890BB02D0130A400240851
:101B6E00A507A11FBB2DBC2DAF2D21082302031DE0
:101B7E00C22D20082202031CC52DC62DCA2D2008F9
:101B8E00A2022108A33B0130A136A00C890BCB2D5C
:101B9E000130A502031DD42DD52DBC2D2608031909
:101BAE00D92DDA2DDF2DA209A309A20A0319A30A42
:101BBE002308A1002208A00008002000AB00102E70
:101BCE008B3128238D312C2E8B3133238D312C2EBE
:101BDE002B080A3E8600013087000108A900AA01E1
:101BEE002908A0002A08A1008D314C258D312C2EFC
:101BFE008B311D238D312C2E8B312D238D312C2E9F
:101C0E008B311A238D312C2E2B0886319D268D314A
:101C1E002C2E2808003A0319152E2C2E2708003AD0
:101C2E000319E72D013A0319EB2D033A0319EF2D92
:101C3E00013A0319FF2D073A0319032E013A03192E
:101C4E00072E033A03190B2E2C2E07302000A0006E
:101C5E000030A1002708013EA2000030283DA3005D
:101C6E008D3190258D312000200808008B3168239E
:101C7E008E318E3196268E3120002108A900200843
:101C8E00A80028032904031D4D2E4E2E952E161442
:101C9E0096141615961515302000A7004B30A60089
:101CAE00BE30890B582EA60B582EA70B582E0000AF
:101CBE002000161096101611961115302000A70050
:101CCE004B30A600BE30890B6A2EA60B6A2EA70BD0
:101CDE006A2E00002000161496141615961515304F
:101CEE002000A7004B30A600BE30890B7C2EA60B21
:101CFE007C2EA70B7C2E00002000161096101611BD
:101D0E00961115302000A7004B30A600BE30890B6F
:101D1E008E2EA60B8E2EA70B8E2E000008008B315A
:101D2E005E238E318B31B6238E31803023008C00B2
:101D3E002E000F1CA32EA42E9F2E2300111BA82EA7
:101D4E00A92EA42E2E000F10033023008C002E007F
:101D5E000F1CB22EB32EAE2E2300111BB72EB82E93
:101D6E00B32E2E000F108731F7278E318B31B6230D
:101D7E008E31923023008C002E000F1CC72EC82EE1
:101D8E00C32E2300111BCC2ECD2EC82E2E000F10CD
:101D9E008731F7278E318B31A6238E312300911593
:101DAE002E000F1CDB2EDC2ED72E0F1023000C085E
:101DBE002000A200A3012208A4002308A5002300EE
:101DCE0091128B314B238E31AB302000240625042B
:101DDE00031DF22EF32EF82E0130A0000030A100CC
:101DEE00FA2EA001A1010800031020004A0D4B0D90
:101DFE00D1005108031D042F052F0E2F0030CB00EC
:101E0E000030CA000030C9000030C8006B2F4808EF
:101E1E00CC004908CD004A08CE004B08CF001F3039
:101E2E00CF36CE0CCD0CCC0C890B172F4C08D00016
:101E3E00CA17FF30C805FF30C905FF30CA0500308C
:101E4E00CB059630D102D11F2D2F2E2F462F5108A4
:101E5E00803A973E0318342F352F362F052F013039
:101E6E00CB36CA0CC90CC80C890B372F0130CC00ED
:101E7E004C08D107031D442F452F362F5B2F2030E2
:101E8E005102031C4B2F4C2F562F052F0130C835F6
:101E9E00C90DCA0DCB0D890B4E2F0130D102510841
:101EAE00031D5A2F5B2F4D2F500803195F2F602FE4
:101EBE006B2FC809C909CA09CB09C80A0319C90A6F
:101ECE000319CA0A0319CB0A0800200091163E0016
:101EDE00B8122000111091101111911116109610B8
:101EEE00161196118B317C238F318B3172238F31EA
:101EFE0022009F151E1510303E00A50020009312E3
:101F0E003D004B08E0391638CB00200013173E0079
:101F1E004E13443022009B008C3153248F3122000B
:101F2E009D179E161E121D168E313D268F310B17D4
:101F3E002E009916191619148B17033021005D0205
:101F4E00E93003195C020318AD2FAE2FD92F6108AB
:101F5E002000A100210060082000A0008C31382450
:101F6E008F31210063082000A100210062082000AB
:101F7E00A0008B3186238F31033021005F02E930C0
:101F8E0003195E020318CC2FCD2FEA2F66302000E6
:101F9E00AC004530AD006830AE006E3085318C251A
:101FAE008F31EA2FDC302000A0000530A1008C31EB
:101FBE0038248F31D0302000A0000730A1008B31A3
:101FCE0086238F31EA2F200063080319EF2FF02F9D
:101FDE00A42F59035A04031DF52FF62FFA2F833120
:101FEE0012238F31A42F8C3153248F31A42F8031A3
:061FFE00892801340034C3
:020000040001F9
:0A000E008F1FFF3F9F3FFF3FFF3FA2
:00000001FF
