:04000000803189289A
:100008007E1480312E000F1C0A280B28102820008F
:10001800EE01EE0A2E000F108F1E1328142849280F
:1000280022001908F500F6017508F7007608F800AF
:10003800200061036204031D222823283128780840
:10004800F1007708F00085319725803120005D08A0
:10005800013EDD0000305E3DDE005E08803AF500BE
:100068006008803A7502031D3B285F085D02031C87
:100078003E283F2842282000E301E30A01302100FE
:10008800E8070030E93D2E008F120F1E4C284D283E
:10009800872820005808803AF5005608803A7502EB
:1000A800031D582855085702031C5B285C28702834
:1000B8002E00191220006008803AF5008030750281
:1000C800031D682801305F0203186B286C288528F7
:1000D8002000E301E30A85280230553E86008701A7
:1000E800403F20005B078400413F5C3D85000008DD
:1000F80022009A0020005708013ED7000030583DE2
:10010800D8002E000F127E10090080318B28FC3099
:1001180084008730850079308600003087000430FD
:100128008A31472280314D3084008A308500693019
:1001380086000030870006308A31472280313B3004
:1001480084008C308500A0308600003087002E3077
:100158008A3147228031D7308400873085002030AB
:1001680086000130870025308A314722803155309A
:1001780084000030850014308A3141228031CE302D
:100188008400003085001C308A314122803145309E
:100198008400013085001B308A3141228031A03033
:1001A80084000130850016308A31412280317E106A
:1001B80020008631AD2E200031088039BB00313552
:1001C800C100B01FE828E928EA28411441080319AA
:1001D800EE28EF28FE28410A031DF328F428FC28FE
:1001E8000030B1000030B0000030AF000030AE0089
:1001F800B01706290030B1000030B0000030AF0061
:100208000030AE0035088039B6003608BB063535F3
:10021800C000B41F102911291229401440080319DD
:10022800162917292629400A031D1B291C292429B8
:100238000030B5000030B4000030B3000030B20028
:10024800B4172E290030B5000030B4000030B300D8
:100258000030B200400803193229332938294108EF
:10026800031D3729382941290030B1000030B0007A
:100278000030AF000030AE00192B2E08A000340863
:100288008C311724803120002108C7002008C600BF
:100298004608B600B701B801B9013908BF003808E7
:1002A800BE003708BD003608BC004708B600B701D5
:1002B800B801B9013908C5003808C4003708C300B7
:1002C8003608C2002F08A00033088C31172480316B
:1002D80020002108C7002008C6004608B600B7015C
:1002E800B801B9013608BC073708BD3D3808BE3D1E
:1002F8003908BF3D4708B600B701B801B90136084B
:10030800C2073708C33D3808C43D3908C53D300821
:10031800A00032088C311724803120002108C70042
:100328002008C6004608B600B701B801B90136086A
:10033800BC073708BD3D3808BE3D3908BF3D4708F2
:10034800B600B701B801B9013608C2073708C33D7E
:100358003808C43D3908C53D0830BC35BD0DBE0D53
:10036800BF0D890BB1292F08A00032088C31172442
:10037800803120002108C7002008C6004608BC07B5
:100388004708BD3D0030BE3DBF3D2E08A0003308E4
:100398008C311724803120002108C7002008C600AE
:1003A8004608BC074708BD3D0030BE3DBF3D08308C
:1003B800BC35BD0DBE0DBF0D890BDC292E08A00074
:1003C80032088C311724803120002108C70020080A
:1003D800C6004608BC074708BD3D0030BE3DBF3DCE
:1003E8002F08A00034088C31172480312000210800
:1003F800C7002008C6004608C2074708C33D0030AA
:10040800C43DC53D3008A00033088C311724803125
:1004180020002108C7002008C6004608C207470870
:10042800C33D0030C43DC53D3008A00034088C31C0
:100438001724803120002108C7002008C60046087C
:10044800B6004708B700B801B9010830B635B70D8E
:10045800B80DB90D890B2A2A3608C2073708C33DDB
:100468003808C43D3908C53D3C08B6003D08B7000A
:100478003E08B8003F08B9001830B936B80CB70CB8
:10048800B60C890B412A3608C2073708C33D38081D
:10049800C43D3908C53D0830BC35BD0DBE0DBF0D86
:1004A800890B502A41084007B600B701B70D360836
:1004B800823EC600FF30373DC700792A0130C23579
:1004C800C30DC40DC50D890B632ABF1F6C2A6D2A85
:1004D8006E2A42140130BC35BD0DBE0DBF0D890B0F
:1004E8006F2AFF30C607FF30C73DC41F7C2A7D2A0C
:1004F800622AC001BF1F812A822A9E2AFF303C053A
:10050800B600FF303D05B700FF303E05B8007F302C
:100518003F05B90039083804370436040319952A09
:10052800962A992AC001C00A9E2A421C9C2A9D2A02
:100538009E2A962A40080319A22AA32ACB2A013008
:10054800C2070030C33D0030C43D0030C53D451CE6
:10055800AE2AAF2ACB2A4208B6004308B70044089F
:10056800B8004508B9000130BA00B937B80CB70C63
:10057800B60CBA0BB92A3908C5003808C4003708C0
:10058800C3003608C2000130C6070030C73D47081F
:10059800803AB60080303602031DD42AFF30460266
:1005A800031CD72AD82AE22A7F302000C5008030D1
:1005B800C4000030C3000030C2000D2B20004708E3
:1005C800803AB60080303602031DEC2A013046021C
:1005D8000318EF2AF02AFB2A00302000C50000305B
:1005E800C4000030C3000030C200BB010D2B200046
:1005F8004608C100FF30C205FF30C3057F30C4057F
:100608000030C505411C092B0A2B0B2BC41741369A
:10061800C5003B08B6003608C5044508B1004408C3
:10062800B0004308AF004208AE000800210060088F
:10063800183E2000A000FC302100613D2000A100F0
:10064800A201A11BA2032208A30001308E31A62615
:10065800833120002308B5002208B4002108B30024
:100668002008B2003D30B100CC30B000CC30AF0033
:10067800CD30AE008031DF20833120003108CB003F
:100688003008CA002F08C9002E08C800873166271D
:10069800833120004908D4004808D30021004F08BE
:1006A800803A2000D20086305202031D5E2BA4300F
:1006B80021004E02031C612B622B8B2B2100510859
:1006C800803A2000D20085305202031D6E2B46303E
:1006D80021005002031C712B722B8B2B2100510817
:1006E800803A2000D20086305202031D7E2B7330E0
:1006F800210050020318812B822B8B2B20005408D9
:10070800A1005308A0008B31F62383317D2C2100F2
:100718004F08803A2000D20085305202031D972BE3
:10072800153021004E0203189A2B9B2BC42B210055
:100738005108803A2000D20085305202031DA72BB1
:10074800463021005002031CAA2BAB2BC42B2100DE
:100758005108803A2000D20086305202031DB72B80
:100768007330210050020318BA2BBB2BC42B200076
:100778005408A1005308A0008B31D52383317D2C68
:1007880021005108803A2000D20086305202031D11
:10079800D02BA43021005002031CD32BD42BFD2BCB
:1007A80021004F08803A2000D20085305202031DF4
:1007B800E02B463021004E02031CE32BE42BFD2BDB
:1007C80021004F08803A2000D20086305202031DD3
:1007D800F02B733021004E020318F32BF42BFD2B62
:1007E80020005408A1005308A0008B31B4238331A2
:1007F8007D2C21005108803A2000D2008530520219
:10080800031D092C15302100500203180C2C0D2C47
:10081800362C21004F08803A2000D2008530520241
:10082800031D192C463021004E02031C1C2C1D2CC4
:10083800362C21004F08803A2000D2008630520220
:10084800031D292C733021004E0203182C2C2D2C4B
:10085800362C20005408A1005308A0008B319323A4
:1008680083317D2C21005108803A2000D200853048
:100878005202031D422C463021005002031C452C15
:10088800462C7A2C21005108803A2000D20086306C
:100898005202031D522C7330210050020318552CAC
:1008A800562C7A2C21004F08803A2000D20085303F
:1008B8005202031D622C463021004E02031C652C97
:1008C800662C7A2C21004F08803A2000D20086300E
:1008D8005202031D722C733021004E020318752C2E
:1008E800762C7A2C8B310C2383317D2C8B3176231B
:1008F800833108002000B400340886008701010312
:10090800031D872C882C8E2D3408860087018101D1
:100918002C0886008701403FA700413FA8002D080A
:100928008D318F2584312000AF00B0012C0886005E
:1009380087012F08C03F3008C13F2D080B3E8600B5
:100948000130870001080319AA2CAB2C8E2D2D0825
:10095800063E860001308700403FAF00413FB000AF
:100968002D08043E860001308700403FB100413F1A
:10097800B2003208803AB3003008803A3302031DCF
:10098800C72C2F0831020318CA2CCB2CF62C2000B8
:100998002D08063E860001308700403FAF00413FEA
:1009A800B0002D08023E860001308700403FB100AC
:1009B800413FB2003208803AB3003008803A33022F
:1009C800031DE82C2F0831020318EB2CEC2CF62C15
:1009D80020001614961016112E0886008701810132
:1009E800810A8E2D20002D08043E860001308700E4
:1009F800403FAF00413FB0002D08063E8600013061
:100A08008700403FB100413FB2003208803AB3004E
:100A18003008803A3302031D132D2F0831020318C2
:100A2800162D172D422D20002D08043E860001307A
:100A38008700403FAF00413FB0002D08023E8600CE
:100A480001308700403FB100413FB2003208803A90
:100A5800B3003008803A3302031D342D2F083102C9
:100A68000318372D382D422D200016109614161114
:100A78002E0886008701023081008E2D20002D0867
:100A8800023E860001308700403FAF00413FB00082
:100A98002D08043E860001308700403FB100413FE9
:100AA800B2003208803AB3003008803A3302031D9E
:100AB8005F2D2F0831020318622D632D8E2D200023
:100AC8002D08023E860001308700403FAF00413FBD
:100AD800B0002D08063E860001308700403FB10077
:100AE800413FB2003208803AB3003008803A3302FE
:100AF800031D802D2F0831020318832D842D8E2D80
:100B080020001610961016152E088600870103304F
:100B180081008E2D20002E088600870101088D3166
:100B28003725843108000830553E86008701413159
:100B3800811F9F2DA02D682EAC2E71082100E30087
:100B48007008E200AC2E1430CE3E86008701710892
:100B5800F3007008F2007208F300F201403F7207D8
:100B68002100CE00413F733DCF00AC2E1430CE3E65
:100B7800860087017108F3007008F2007208F3001C
:100B8800F201403F72072100D000413F733DD10080
:100B9800AC2E1430CE3E860087017108F300700831
:100BA800F2007208F300F201403F72072100D20000
:100BB800413F733DD300AC2E1430CE3E86008701F2
:100BC8007108F3007008F2007208F300F201403F68
:100BD80072072100D400413F733DD500AC2E14307C
:100BE800CE3E860087017108F3007008F200720893
:100BF800F300F201403F72072100D600413F733DE8
:100C0800D700AC2E1430CE3E860087017108F30061
:100C18007008F2007208F300F201403F72072100E9
:100C2800D800413F733DD900AC2E1430CE3E86002B
:100C380087017108F3007008F2007208F300F201EE
:100C4800403F72072100DA00413F733DDB00AC2EC4
:100C58001430CE3E860087017108F3007008F20058
:100C68007208F300F201403F72072100DC00413FA7
:100C7800733DDD00AC2E1430CE3E8600870171082E
:100C8800F3007008F2007208F300F201403F7207A7
:100C98002100DE00413F733DDF00AC2E1430CE3E14
:100CA800860087017108F3007008F2007208F300EB
:100CB800F201403F72072100E000413F733DE1002F
:100CC8002000E401E501AC2E20005E08003A03197B
:100CD8006E2EAC2E5D08063A0319A12D013A0319B0
:100CE800A72D0F3A0319A12D013A0319BA2D033A7A
:100CF8000319A12D013A0319CD2D073A0319A12D86
:100D0800013A0319E02D033A0319A12D013A0319F9
:100D1800F32D1F3A0319A12D013A0319062E033AA0
:100D28000319A12D013A0319192E073A0319A12D08
:100D3800013A03192C2E033A0319A12D013A03197C
:100D48003F2E0F3A0319A12D013A0319522EAC2E4A
:100D58000800200091163E00B812200011109110D2
:100D68001111911116109610161196118A319522AB
:100D780086318A318B22863122009F151E1510304C
:100D88003E00A500200093123D004B08E0391638BC
:100D9800CB00200013173E004E13443022009B0066
:100DA8008B317623863122009D179E161E121D1642
:100DB8008A31532286318D31E82586310B172E0072
:100DC8009916191619148B17033021005702E930A8
:100DD800031956020318F12EF22E1D2F5B0820006E
:100DE800A10021005A082000A0008B315B23863126
:100DF80021005D082000A10021005C082000A0005F
:100E08008A319F228631033021005902E9300319C3
:100E180058020318102F112F2E2F66302000AC0017
:100E28005430AD006830AE006E3084317E24863197
:100E38002E2FDC302000A0000530A1008B315B2371
:100E48008631D0302000A0000730A1008A319F22CF
:100E580086312E2F200063080319332F342FE82EF4
:100E680059035A04031D392F3A2F3E2F83311A2371
:100E78008631E82E023059065A04031D442F452FA7
:100E8800602F073021005702D03003195602031C87
:100E98004E2F4F2F602F03305902E93003195802A3
:100EA8000318572F582F5C2F8B3140238631E82E9B
:100EB8008C3169248631E82E8B3176238631E82EF1
:100EC80080318928031020004A0D4B0DD1005108AC
:100ED800031D6F2F702F792F0030CB000030CA0010
:100EE8000030C9000030C800D62F4808CC00490897
:100EF800CD004A08CE004B08CF001F30CF36CE0CAD
:100F0800CD0CCC0C890B822F4C08D000CA17FF30AF
:100F1800C805FF30C905FF30CA050030CB0596303B
:100F2800D102D11F982F992FB12F5108803A973E9F
:100F380003189F2FA02FA12F702F0130CB36CA0C7A
:100F4800C90CC80C890BA22F0130CC004C08D10762
:100F5800031DAF2FB02FA12FC62F20305102031C25
:100F6800B62FB72FC12F702F0130C835C90DCA0D44
:100F7800CB0D890BB92F0130D1025108031DC52FA4
:100F8800C62FB82F50080319CA2FCB2FD62FC80940
:100F9800C909CA09CB09C80A0319C90A0319CA0A1F
:100FA8000319CB0A0800FE3419340134083401341B
:100FB80000340134FE341934013406340434003466
:100FC8000034003400340034FE341934013406345B
:100FD800043400340234323402343234FE341934E6
:100FE80001340634043400340134323401343234E8
:080FF8004B342E348C340A3412
:1014460023001115080023009115080023009114AC
:1014560008004F3023008D0008002E000F102300D7
:10146600111408002E000F10733023008C000800A2
:101476002E000F10723023008C00080064008001DB
:101486000131890B422A0034FE0012001E00FE0BB9
:10149600482A003401340034033402340134013460
:1014A60032008E170E16200092133E00C317080056
:1014B600230011152E000F1C612A622A5D2A0F10C7
:1014C6000800230091142E000F1C6A2A6B2A662A34
:1014D6000F1008002000A1002108083E86000130F8
:1014E6008700200881000800230011142E000F1029
:1014F6000F1C7E2A7F2A7B2A0F1008002830230023
:1015060090008A31F5228A318A312C228A310800EC
:101516002000121192113E004311C3112000171131
:10152600971108002000121092103E004310C310BD
:101536002000171097100800033020002102E93020
:10154600031920020318A82AA92AAC2A17159711ED
:10155600AE2A1711971108002000A00020080A3EA5
:1015660086000130870020080A3E8400013085008D
:101576000008013E81000800733023008C002E0015
:101586000F1CC62AC72AC22A2300111BCB2ACC2A23
:10159600C72A2E000F100800723023008C002E0080
:1015A6000F1CD62AD72AD22A2300111BDB2ADC2AB3
:1015B600D72A2E000F1008002000A00020080A3E9F
:1015C60086000130870081012008093E860001302F
:1015D6008700810120080B3E8600013087008101CB
:1015E600810A08003D004508E0391338C500460861
:1015F600E0391438C60014303E00A3001530A400AC
:101606002000931513163E00CE114E12CF154F161D
:10161600080002302000D9000030DA00D701D801D6
:101626000A30D5000030D600E101E201DF01E00119
:10163600DD01DE01E3012730DB000130DC002E0096
:10164600191608002000A20021080139A10022086D
:10165600093E860001308700210881002208093EE4
:101666008600013087000103031D3A2B3B2B3F2BDD
:1016760022088A31AF228B31080003302000E100B6
:101686000030E200DF01E001DD01DE010330D900B8
:101696000030DA00C130DB000030DC00D701D801B1
:1016A6000730D5000030D600E3012E0019160800D9
:1016B600200017109710E830200603300319210682
:1016C600031D662B672B6A2B17149710752BD030CA
:1016D6002006073003192106031D722B732B752B69
:1016E60017109714080001302000E1000030E200D6
:1016F6001A30DF000030E000DD01DE010130D900E4
:101706000030DA00C830DB000030DC00D701D80139
:101716000630D5000030D600E3012E001916080069
:1017260002302000D9000030DA00D701D8010A3093
:10173600D5000030D600E101E201DF01E001DD0164
:10174600DE01E30120082200B80020002008220064
:10175600BA0031302000DB000130DC002E00191603
:10176600080002302000D9000030DA00D701D80185
:101776000A30D5000030D600E101E201DF01E001C8
:10178600DD01DE01E30120082200C200200020085E
:101796002200C4003B302000DB000130DC002E00BC
:1017A6001916080002302000D9000030DA00D701EF
:1017B600D8010A30D5000030D600E101E201DF0190
:1017C600E001DD01DE01E30120082100B700200071
:1017D60020082100B900B0302000DB000030DC001A
:1017E6002E001916080002302000D9000030DA0059
:1017F600D701D8010A30D5000030D600E101E20158
:10180600DF01E001DD01DE01E30120082100AD007A
:10181600200020082100AF00A6302000DB000030A9
:10182600DC002E00191608002000A800A401A5015E
:101836002008A200A3012208A6002308A700281C4E
:10184600252C262C2A2C2608A4072708A53D01307E
:10185600A635A70D890B2B2C0310A80C2808031DF1
:10186600352C362C222C2508A1002408A0000800BF
:10187600DC340534E8340334D0340734FE34193408
:101886000134063404340034023432340134323440
:10189600FE3419340134063404340034013432344D
:1018A60002343234FE34193403340A340134003439
:1018B6000134FE341934013409340134003402345D
:1018C600FE3419340134053400340034D03021009C
:1018D6005A06073003195B06031D722C732C762CEF
:1018E6000330C000842CDC305A06053003195B0631
:1018F600031D7E2C7F2C822CC001C00A842C023052
:10190600C00003302000E1000030E200DF01E0010A
:10191600DD01DE010330D9000030DA00BA30DB0029
:101926000030DC00D701D8010730D5000030D600E2
:10193600E3012E00191608002000A201BD2C9330E9
:10194600A200DF2C9430A200DF2C9530A200DF2C01
:101956009630A200DF2C9730A200DF2C9A30A2002E
:10196600DF2C9B30A200DF2C9830A200DF2C9930B0
:10197600A200DF2C2108003A0319C22CDF2C200814
:10198600003A0319A22C013A0319A52C033A0319AC
:10199600A82C013A0319AB2C073A0319AE2C013ACD
:1019A6000319B12C033A0319B42C013A0319B72CC5
:1019B6000F3A0319BA2CDF2C220823008C000800EA
:1019C6002000A601A31FE82CE92CF02CA209A309EC
:1019D600A20A0319A30AA601A60AA11FF32CF42C36
:1019E600F92CA009A109A00A0319A10A20082104BB
:1019F6000319FE2CFF2C282DA501A50A0B2D01305D
:101A0600A035A10D890B032D0130A4002408A507DC
:101A1600A11F0E2D0F2D022D21082302031D152DAA
:101A260020082202031C182D192D1D2D2008A202A4
:101A36002108A33B0130A136A00C890B1E2D0130D5
:101A4600A502031D272D282D0F2D260803192C2D41
:101A56002D2D322DA209A309A20A0319A30A2308D0
:101A6600A1002208A00008002000A1002103031DF8
:101A76003D2D3E2D572D1F3032008F04343020006F
:101A8600A000F130890B452DA00B452D0032E0302A
:101A960032008F0534302000A000F130890B512D23
:101AA600A00B512D00328E2D02302106031D5C2D18
:101AB6005D2D762D1F3032008F0420302000A000CF
:101AC6002930890B642DA00B642D0032E0303200E2
:101AD6008F0520302000A0002930890B702DA00B27
:101AE600702D00328E2D1F3032008F0420302000E2
:101AF600A0002930890B7D2DA00B7D2D0032E03012
:101B060032008F0520302000A0002930890B892D56
:101B1600A00B892D003208002000AB00BB2D8A31B6
:101B260030228D31D72D8A313B228D31D72D2B088E
:101B36000A3E8600013087000108A900AA0129088B
:101B4600A0002A08A1008C319F248D31D72D8A311F
:101B560029228D31D72D8A3135228D31D72D8A31E3
:101B660026228D31D72D2B088F3151278D31D72D38
:101B76002808003A0319C02DD72D2708003A031963
:101B8600922D013A0319962D033A03199A2D013A1B
:101B96000319AA2D073A0319AE2D013A0319B22DDE
:101BA600033A0319B62DD72D07302000A0000030C8
:101BB600A1002708013EA2000030283DA3008C3179
:101BC600E3248D312000200808008A3181228D31DE
:101BD6008E3141268D3120002108A9002008A80059
:101BE60028032904031DF82DF92D402E16149614EA
:101BF6001615961515302000A7004B30A600BE30EE
:101C0600890B032EA60B032EA70B032E0000200024
:101C1600161096101611961115302000A7004B309D
:101C2600A600BE30890B152EA60B152EA70B152E5A
:101C3600000020001614961416159615153020006F
:101C4600A7004B30A600BE30890B272EA60B272EE9
:101C5600A70B272E000020001610961016119611BD
:101C660015302000A7004B30A600BE30890B392E58
:101C7600A60B392EA70B392E000008008A317722D1
:101C86008E318A31CF228E31803023008C002E0097
:101C96000F1C4E2E4F2E4A2E2300111B532E542E50
:101CA6004F2E2E000F10033023008C002E000F1C29
:101CB6005D2E5E2E592E2300111B622E632E5E2E84
:101CC6002E000F108A3164228E318A31CF228E3156
:101CD600923023008C002E000F1C722E732E6E2E57
:101CE6002300111B772E782E732E2E000F108A31AB
:101CF60064228E318A31BF228E31230091152E0047
:101D06000F1C862E872E822E0F1023000C08200013
:101D1600A200A3012208A4002308A5002300911213
:101D26008A315B228E31AB30200024062504031D48
:101D36009D2E9E2EA32E0130A0000030A100A52EC0
:101D4600A001A10108002000A80028080319AC2E54
:101D5600AD2EC12EA31FB02EB12EC12E2009AA0072
:101D66002109AB002209AC002309AD00AA0A031918
:101D7600AB0A0319AC0A0319AD0AC92E2308AD0034
:101D86002208AC002108AB002008AA002308220480
:101D960021042004031DD02ED12EDA2E0030A300FC
:101DA6000030A2000030A1000030A000502F963075
:101DB600A900E82E0130A4002408A9070130AD3699
:101DC600AC0CAB0CAA0C890BE22EFE302D05031DC4
:101DD600ED2EEE2EDD2E022F0130A4002408A907D9
:101DE6000130AA070030AB3D0030AC3D0030AD3DC0
:101DF6000130AD36AC0CAB0CAA0C890BFC2EFF30B7
:101E06002D05031D072F082FEF2E122F0130A902D3
:101E16000130AA35AB0DAC0DAD0D890B0C2FAC1BEB
:101E2600152F162F1C2F0230290203181B2F1C2FCB
:101E3600092F29181F2F202F282FFF30AA05FF3022
:101E4600AB057F30AC05FF30AD050310A90C2908A2
:101E5600A400A501A601A7011830A435A50DA60D5D
:101E6600A70D890B302F2408AA042508AB042608E1
:101E7600AC042708AD0428080319422F432F482F26
:101E8600A31F462F472F482FAD172D08A3002C0858
:101E9600A2002B08A1002A08A00008002000A40028
:101EA60023000C082000A300DA2F2308A100240831
:101EB6008B3125238F31FC2F2308A00024088A317B
:101EC6006D228F31200024088A31AF228F31FC2FFA
:101ED6002408083E8600013087002408840001306B
:101EE60085000108803F2308813F24088A31AF22FC
:101EF6008F31FC2F2308A00024088A316D228F31F0
:101F0600200024088A31AF228F3120002408083EA1
:101F16008600013087002408063E840001308500D3
:101F26000108803F2308813F24088A31AF228F3180
:101F3600FC2F2308A00024088A316D228F3120004F
:101F460024088A31AF228F31FC2F2408083E8600F0
:101F5600013087002408043E840001308500010812
:101F6600803F2308813F24088A31AF228F31FC2F1E
:101F76002308A00024088A316D228F31200024080E
:101F86008A31AF228F31FC2F2408083E86000130AB
:101F960087002408023E8400013085000108803F46
:101FA6002308813F24088A31DF228F31FC2F240841
:101FB6000A3E8600013087000108003A0319582FAF
:101FC600013A03195F2F033A03196B2F013A0319DC
:101FD6007D2F073A0319882F013A03199C2F033ADC
:101FE6000319A82F013A0319BB2F0F3A0319C72F5C
:101FF600FC2F8A3123228F31080003340034023447
:0620060000340134003437
:020000040001F9
:0A000E008F1FFF3F9F3FFF3FFF3FA2
:00000001FF
