:0400000080317D28A6
:100008007E1480312E008F1E0A280B2841282200DA
:100018001908F500F6017508F7007608F8002000C1
:1000280041034204031D19281A2828287808F100DA
:100038007708F0008131C121803120003D08013E60
:10004800BD0000303E3DBE003E08803AF500400845
:10005800803A7502031D32283F083D02031C3528EB
:10006800362839282000C301C30A01302000C607FA
:100078000030C73D2E008F127B280F1E44284528CC
:100088007B2820003908803AF5003708803A750245
:10009800031D502836083802031C532854286828A2
:1000A8002E00191220004008803AF50080307502B1
:1000B800031D602801303F0203186328642879284B
:1000C8002000C301C30A7928200038083C07F5003E
:1000D800750886008701010822009A002000380868
:1000E800013EB8000030393DB9002E000F127E10D5
:1000F800090080317F2884319A248031FB008431C3
:100108009B248031FC00893084008330850048308E
:10011800860000308700203084318E24803164309E
:10012800840083308500A0308600003087002530A9
:1001380084318E248031F901FA01203084000030A6
:1001480085002830843194248031C5308400003003
:10015800850024308431942480317E10200082313F
:10016800CB2A20002108803AEA0086306A02031D63
:10017800BF28A4302002031CC228C328E828200076
:100188002308803AEA0085306A02031DCD284630EC
:100198002202031CD028D128E82820002308803A0E
:1001A800EA0086306A02031DDB2873302202031836
:1001B800DE28DF28E8284B302000E8000030E9007E
:1001C8008331E7238031C02920002108803AEA00E2
:1001D80085306A02031DF228153020020318F5281D
:1001E800F6281B2920002308803AEA0085306A0295
:1001F800031D002946302202031C032904291B2958
:1002080020002308803AEA0086306A02031D0E297E
:10021800733022020318112912291B294B302000A0
:10022800E8000030E900843102248031C029200030
:100238002308803AEA0086306A02031D2529A43083
:100248002202031C282929294E2920002108803A46
:10025800EA0085306A02031D332946302002031C58
:10026800362937294E2920002108803AEA008630AD
:100278006A02031D412973302002031844294529C5
:100288004E294B302000E8000030E9008331A923D3
:100298008031C02920002308803AEA0085306A02AC
:1002A800031D58291530220203185B295C2981296E
:1002B80020002108803AEA0085306A02031D662979
:1002C80046302002031C69296A2981292000210857
:1002D800803AEA0086306A02031D742973302002CE
:1002E80003187729782981294B302000E80000304D
:1002F800E9008331C8238031C02920002308803ACF
:10030800EA0085306A02031D8B2946302202031C4D
:100318008E298F29BD2920002308803AEA008630DB
:100328006A02031D99297330220203189C299D290A
:10033800BD2920002108803AEA0085306A02031DA1
:10034800A72946302002031CAA29AB29BD29200071
:100358002108803AEA0086306A02031DB529733005
:1003680020020318B829B929BD29843153248031C2
:10037800C02984311D24803108000730363E8600AC
:1003880087014131811FC929CA29862ACA2A7108C9
:10039800B5007008B400CA2A1430203E86008701D0
:1003A8007108F3007008F2007208F300F201403F90
:1003B8007207A000413F733DA100CA2A1430203EB5
:1003C800860087017108F3007008F2007208F300D4
:1003D800F201403F7207A200413F733DA300CA2AC1
:1003E8001430203E860087017108F3007008F2007F
:1003F8007208F300F201403F7207A400413F733DC9
:10040800A500CA2A1430203E860087017108F3002F
:100418007008F2007208F300F201403F7207A6006C
:10042800413F733DA700CA2A1430203E8600870149
:100438007108F3007008F2007208F300F201403FFF
:100448007207A800413F733DA900CA2A1430203E14
:10045800860087017108F3007008F2007208F30043
:10046800F201403F7207AA00413F733DAB00CA2A20
:100478001430203E860087017108F3007008F200EE
:100488007208F300F201403F7207AC00413F733D30
:10049800AD00CA2A1430203E860087017108F30097
:1004A8007008F2007208F300F201403F7207AE00D4
:1004B800413F733DAF00CA2A1430203E86008701B1
:1004C8007108F3007008F2007208F300F201403F6F
:1004D8007207B000413F733DB100CA2A1430203E74
:1004E800860087017108F3007008F2007208F300B3
:1004F800F201403F7207B200413F733DB300F9017A
:10050800FA01CA2A20003E08003A03198C2ACA2A8E
:100518003D08063A0319CB29013A0319D0290F3AA5
:100528000319CB29013A0319E229033A0319CB2904
:10053800013A0319F429073A0319CB29013A031997
:10054800062A033A0319CB29013A0319182A1F3A34
:100558000319CB29013A03192A2A033A0319CB298B
:10056800013A03193C2A073A0319CB29013A03191E
:100578004E2A033A0319CB29013A0319602A0F3A84
:100588000319CB29013A0319722ACA2A0800200044
:1005980091163E00B81220001110911011119111FE
:1005A800161096101611961184317A2482318431EE
:1005B8008424823122009F151E1510303E00A500AC
:1005C800200093123D004B08E0391638CB0020007C
:1005D80013173E004E13443022009B0084311D2423
:1005E800823122009D179E161E121D168B170B179F
:1005F8002E0099161916033020002902E930031934
:1006080028020318082B092B1A2B16142D08E900A9
:100618002C08E80084313824823120002F08E900B2
:100628002E08E80084316A2482312A2B1610DC3027
:10063800E8000530E900843138248231D0302000C8
:10064800E8000730E90084316A2482310330200051
:100658002B02E93003192A020318332B342B362BCB
:100668009614372B9610DC302C06053003192D060E
:10067800031D3F2B402B422B1615432B161103301D
:100688002F02E93003192E0203184B2B4C2B4E2B4B
:1006980096154F2B961143080319532B542BFF2AF9
:1006A8003A033B04031D592B5A2B5E2B8031B5208E
:1006B8008231FF2A84311D248231FF2A80317D282E
:1006C800FE34193401340834013400340134FE3462
:1006D800193401340634043400340034003400344E
:1006E8000034FE341934013406340434003402343E
:1006F800323402343234FE341934013406340434CA
:1007080000340134323401343234DC340534E83412
:100718000334D0340734FE34193401340634043435
:1007280000340234323401343234FE3419340134A2
:100738000634043400340134323402343234FE34A2
:100748001934013405340034003405302000BA006F
:100758000030BB00B801B9010A30B6000030B7005C
:10076800C101C201BF01C001BD01BE01C3016808CA
:100778002100C200200068082100C400BB3020000E
:10078800BC002E001916080006302000BA00003000
:10079800BB00B801B9010A30B6000030B700C1018A
:1007A800C201BF01C001BD01BE01C301680821002B
:1007B800B800200068082100BA00B1302000BC0051
:1007C8002E001916080003302000BA000030BB00C4
:1007D800B801B9010A30B6000030B700C101C20142
:1007E800BF01C001BD01BE01C3016808D50068088A
:1007F800D7004E30BC002E00191608000430200027
:10080800BA000030BB00B801B9010A30B6000030A8
:10081800B700C101C201BF01C001BD01BE01C301D2
:100828006808DF006808E1005830BC002E0019167F
:10083800080001302000C1000030C2001A30BF009B
:100848000030C000BD01BE010130BA000030BB005D
:100858006230BC00B801B9010630B6000030B700FC
:10086800C3012E0019160800200017109710E83051
:100878006806033003196906031D432C442C472CD2
:1008880017149710522CD0306806073003196906E0
:10089800031D4F2C502C522C1710971408000730AA
:1008A8002000BA000030BB00B801B9010A30B60018
:1008B8000030B700C101C201BF01C001BD01BE01C6
:1008C800C301A730BC002E00191608000330200011
:1008D8006902E930031968020318732C742C772C09
:1008E80017159711792C171197110800200012106D
:1008F80092103E004310C3102000171097100800F4
:100908002000121192113E004311C311200017114B
:1009180097110800FE0012001E00FE0B8F2C0034F9
:10092800640080010131890B952C003401340034B6
:040938000134003452
:020000040001F9
:0A000E008F1FFF3F9F3FFF3FFF3FA2
:00000001FF
